:020000040800F2
:1000000088E300202D0200087D580008991200089E
:1000100079580008490A0008E38800080000000039
:1000200000000000000000000000000063740008F1
:100030004D0A000800000000BB0200081577000808
:1000400047020008470200084702000879690008D3
:10005000470200084702000847020008470200085C
:10006000470200084702000847020008470200084C
:10007000470200084702000847020008470200083C
:10008000470200084702000847020008470200082C
:10009000470200084702000847020008470200081C
:1000A000470200084702000847020008470200080C
:1000B00047020008917700083D78000847020008D1
:1000C00047020008470200084702000847020008EC
:1000D00047020008B98600084702000847020008E6
:1000E00047020008470200084702000847020008CC
:1000F00047020008470200084702000847020008BC
:1001000047020008470200084702000847020008AB
:10011000470200084702000847020008470200089B
:10012000470200084702000847020008470200088B
:1001300000F002F800F06BF80AA090E8000C82448E
:100140008344AAF10107DA4501D100F060F8AFF26B
:10015000090EBAE80F0013F0010F18BFFB1A43F0A5
:100160000103184738FE000058FE00000A444FF013
:10017000000C10F8013B13F0070408BF10F8014B06
:100180001D1108BF10F8015B641E05D010F8016B4B
:10019000641E01F8016BF9D113F0080F1EBF10F8AF
:1001A000014BAD1C0C1B09D16D1E58BF01F801CBD2
:1001B000FAD505E014F8016B01F8016B6D1EF9D555
:1001C0009142D6D37047000000230024002500266A
:1001D000103A28BF78C1FBD8520728BF30C148BFAA
:1001E0000B607047642900F03181752900F02E8181
:1001F000782900F06781632900F0A983732900F052
:10020000AE83002070471FB51FBD10B510BD00F0B4
:10021000C9FB1146FFF7F7FF0BF03EF800F0E7FBD4
:1002200003B4FFF7F2FF03BC08F009FD094880475B
:1002300009480047FEE7FEE7FEE7FEE7FEE7FEE7C8
:10024000FEE7FEE7FEE7FEE704480549054A064BE0
:1002500070470000317700083101000888DD002078
:1002600088E3002088DF002088DF0020EFF3108083
:1002700072B6704780F310887047204C204D25607F
:100280004FF0000484F309881E4C4FF001052570DF
:100290001D4C4FF08055256062B6FEE730B41A4C15
:1002A0004FF08055256030BC704730B4164C4FF08D
:1002B0008055256030BC704700BF72B6EFF30980EF
:1002C00028B1203880E8F00F10490968086000B5AF
:1002D0000F4880475DF804EB0E480F490A7802701A
:1002E0000A480E490A680260106890E8F00F203052
:1002F00080F309884EF0040E62B6704720ED00E0EE
:100300000000FFFF9A00002004ED00E0A0000020A4
:10031000755E00088F00002090000020A8000020DB
:10032000704710B54C1084EA530404D54042C1F123
:10033000000138BF491E1B4204D55242C3F10003DD
:1003400038BF5B1E00F001FA14F0804F04D0404229
:10035000C1F1000138BF491E14F0004F04D05242D1
:10036000C3F1000338BF5B1E10BD00000FB4044989
:1003700010B503AA029800F0F7FA10BC5DF814FB60
:10038000580000200FB41CB5074B06AA7B446946F1
:100390000090059800F0B9FA0020694600F0C8FA0C
:1003A0001CBC5DF814FB0000A105000070B50446FC
:1003B00085690068C10601D5302600E02026C00707
:1003C00007D070BDD4E9012130469047206A401C17
:1003D00020626D1EF6D570BD70B504468569007843
:1003E000C00707D170BDD4E9012120209047206AC1
:1003F000401C20626D1EF6D570BD70B50C460546DA
:10040000012A05D02878800600D5EA69002302E099
:10041000012305E05B1C934202D2E05C0028F9D185
:10042000A869E618C01AA861286A184428622846F4
:10043000FFF7BCFF04E0D5E9012114F8010B904758
:10044000B442F8D32846FFF7C7FF70BD2DE9F0414D
:100450000646002410687529314616A510D0AFF362
:100460000080002802DA404213A507E031688A07BD
:1004700001D512A502E0490704D511A5012401E028
:10048000AFF3008000210A2206F1240709E0B0FB47
:10049000F2FCB0FBF2F302FB1C003030785418463B
:1004A000491C0028F3D123462A463046BDE8F041D6
:1004B00000F0CDB9000000002D0000002B0000006E
:1004C0002000000070B504460D4621461068AFF3C9
:1004D00000802188090502D50F4A7A4402E00E4ABD
:1004E0007A440E32002104F1240305E000F00F06E7
:1004F0000009965D5E54491C0028F7D1207800233E
:10050000000704D5702D02D009B102231132204614
:10051000BDE8704000F09BB9F6F600002DE9F05FF1
:10052000894604464FF0000ADFF874B1FB44C0F876
:1005300020A02046E1688847002874D0252806D0EE
:10054000D4E901219047206A401C2062F1E700268F
:100550005F462046E16888472028054607DB312DA5
:1005600005D2781910F8200C08B10643F1E7B0075E
:1005700001D526F00406C4F81CA00027C4F818A072
:100580002A2D09D0284608F053FB38B304EB87081E
:10059000303DC8F8185019E059F8041B204604EB08
:1005A00087029161E1688847012F054618D1E0690B
:1005B000002820DA26F020061DE0D8F8180000EB0D
:1005C000800005EB40003038C8F818002046E1688C
:1005D0008847054608F02CFB0028EED1012F0AD0F1
:1005E0002E2D08D12046E16888477F1C0546022F42
:1005F00046F02006C4DBA069002803DA404246F03A
:100600000106A061F00701D026F010066C2D0BD07A
:10061000682D09D04C2D39D06A2D35D0742D35D0A8
:100620007A2D33D016E038E0E1682F46204688471F
:10063000B842054609D16C2F26D04FF48060E1689E
:10064000064320468847054604E06C2F1AD04FF435
:10065000807006430DB3A5F14100192802D820355A
:1006600046F400664A462946204626604E46FFF775
:10067000B9FD80B101280BD0F61D26F0070000F16E
:10068000080956E74020E4E78020D8E70020D6E7B5
:1006900006F104094DE7284652E7206ABDE8F09FBD
:1006A000CCF6000040EA0103024630B59B0710D1AA
:1006B0004FF0013400E008C208C91D1B9D4315EA34
:1006C000C41FF8D013F0FF0102F8011B0DD01B0A64
:1006D000F8E711F8013B002B02F8013B05D011F8B7
:1006E000013B002B02F8013BF3D130BD10B5431C98
:1006F00002E010F8011B71B18107FAD14FF001320D
:1007000002C88C1A8C4314EAC211F9D0C01A0A0626
:1007100003D0C01E10BDC01A10BD0A0401D0801E37
:1007200010BD0902FCD0401E10BD421E12F8013F50
:10073000002BFBD111F8013B002B02F8013BF9D152
:100740007047704770477047704753EA020C00F0DB
:1007500069802DE9F04B4FF00006002B1FBFB3FA64
:1007600083F503FA05F424FA05F65E4012BF16433A
:10077000B2FA82F502FA05F4C5F120051EBF22FA8D
:1007800005FC44EA0C04203556EA044C4FEA1444B4
:1007900018BF641C4FF000084FF00009904271EB45
:1007A000030C39D3002919BFB1FA81F701FA07F612
:1007B000B0FA80F700FA07F6C7F120071EBF20FA4B
:1007C00007FC46EA0C062037B6FBF4FCA7EB05074E
:1007D000103F07F01F0BCBF120060CFA0BFB2CFA95
:1007E00006F644BFB3460026202FA4BF5E464FF056
:1007F000000B5BEA060C08BF4FF0010B19EB0B096D
:10080000ABFB027C48EB0608C01B06FB02CC0BFBD3
:1008100003CC71EB0C01C1E70B460246414648464A
:10082000BDE8F08B13B54FF000004FF00001AFF3BF
:100830000080BDE81C40704710B500F0A7F80068C4
:1008400010BD10B5044600F0A1F8046010BD2DE9FC
:10085000F0470D4699469246044600F12408016887
:10086000880604D5E06921F01001216000E0012034
:10087000A84201DD471B00E00027A1697A1902EBBD
:100880000900081AA0612078C00602D42046FFF7AC
:100890008DFD002608E0D4E901211AF806009047F2
:1008A000206A401C761C20624E45F4DB2078C0068E
:1008B0000AD52046FFF77AFD06E0D4E90121302071
:1008C0009047206A401C2062381EA7F10107F4DC23
:1008D00007E0D4E9012118F805009047206A401C80
:1008E0002062281EA5F10105F3DC2046FFF774FD08
:1008F0002078000602D50220BDE8F0870120FBE742
:1009000001694A1C02610878704700B58FB0CDE9D3
:1009100001310021059105497944CDE903101146C3
:100920006846FFF7FBFD0FB000BD0000E5FFFFFFCD
:100930000A6802F8010B0A60704710B5436913B1E9
:10094000AFF3008001E0FFF758FD012010BD1278E1
:1009500000F124010A7000224A700122EDE71168BB
:100960004FF0FF32E9E70000074B70B50D467B44BE
:10097000FFF7CBFF0446284600F00CF810B14FF00B
:10098000FF3070BD204670BDD7A200000048704700
:1009900024DD0020007B00F0800070470048704795
:1009A00024DD00207546FFF7F9FFAE4605006946D5
:1009B000534620F00700854618B020B5FFF744FCE9
:1009C000BDE820404FF000064FF000074FF0000850
:1009D0004FF0000B21F00701AC46ACE8C009ACE8D1
:1009E000C009ACE8C009ACE8C0098D46704710B535
:1009F0000446AFF300802046BDE81040FFF710BC6E
:100A000010B5012005F00EFE002005F00BFE10BD14
:100A100008B5014600200090034800900098084463
:100A200000900098008808BD006C004008B50022C6
:100A30000092044A0092009A02440092009A1160C7
:100A400008BD0000006C004000BFFEE770470000DA
:100A500010B500200549086000F09CFC40F6B83055
:100A600008F0AAFB05F094FD10BD0000A48121420E
:100A700030B5044604254FF4302000F06FF80546E9
:100A8000042D17D10C48006940F002000A490861A2
:100A900008464461006940F0400008614FF430208E
:100AA00000F05CF805460448006941F6FD71084015
:100AB00001490861284630BD0020024004200B494E
:100AC000C96801F0010109B101200EE00749C968B8
:100AD00001F0040109B1022007E00449C96801F0EE
:100AE000100109B1032000E00420704700200240FB
:100AF0000348006940F08000014908617047000028
:100B00000020024070B504460D460426F00200F0B5
:100B100025F80646042E11D10948006940F001006D
:100B2000074908612580F00200F018F806460448DD
:100B3000006941F6FE71084001490861304670BD08
:100B4000002002400248034948600348486070475B
:100B50002301674500200240AB89EFCD00B5024676
:100B60000423FFF7ABFF034603E0FFF7A7FF0346AD
:100B7000521E012B01D1002AF7D102B905231846D4
:100B800000BD000051B18200A2F1C042126842F0E3
:100B900001038200A2F1C042136009E08200A2F1C9
:100BA000C0421268034B1A408300A3F1C0431A608D
:100BB00070470000FEFF0F00D0E901121143C26828
:100BC0001143026911434269114382691143C269A9
:100BD0001143026A1143426A1143826A1143C26A95
:100BE0001143026B114302689200A2F1C0421160EE
:100BF000816808290BD101688900A1F1C041096809
:100C000041F0400201688900A1F1C0410A60416BD6
:100C10000968426B526841EA0211426B926841EAEC
:100C20000221426B928941EA0241426B128A41EAF7
:100C30000251426B127D41EA0261426B926911439B
:100C40000268521C9200A2F1C0421160C16AB1F563
:100C5000804F1BD1816B0968826B526841EA021197
:100C6000826B926841EA0221826B128A41EA025148
:100C7000826B127D41EA0261826B926911430268C4
:100C80009200A2F1C042C2F8041107E06FF0704276
:100C900001688900A1F1C041C1F80421704700003A
:100CA000002006E000212A4A52F82020D175411C7C
:100CB000C8B2284909788842F4DB2749097831B15C
:100CC000012912D0022918D0032926D11DE00121C3
:100CD0001F4A5268D1751E4A9268D1751C4AD26863
:100CE000D1751B4A1269D17518E00121184A1268A2
:100CF000D175174A5269D17510E00121144A126862
:100D0000D175134A9269D17508E00121104A126821
:100D1000D1750F4AD269D17500E000BF00BF0F49FD
:100D200009780D4A1278914210D00B4909780B4A84
:100D30001170002006E00121054A52F8202091752B
:100D4000411CC8B2034909788842F4DB70470000AF
:100D5000380C0020010000200200002003000020C9
:100D60002DE9F04102460025002600200023002442
:100D7000002791F803C00CF00F0591F803C00CF0A8
:100D8000100CBCF1000F03D091F802C04CEA05052D
:100D900091F800C0BCF1000F31D0146800202BE0A6
:100DA0004FF0010C0CFA00F3B1F800C00CEA030696
:100DB0009E4220D183004FF00F0C0CFA03F7BC4386
:100DC00005FA03FC4CEA040491F803C0BCF1280FB7
:100DD00006D14FF0010C0CFA00FCC2F814C00AE076
:100DE00091F803C0BCF1480F05D14FF0010C0CFA8B
:100DF00000FCC2F810C0401C0828D1D31460B1F820
:100E000000C0BCF1FF0F34DD546800202EE000F17B
:100E1000080C4FF0010808FA0CF3B1F800C00CEA16
:100E200003069E4221D183004FF00F0C0CFA03F70A
:100E3000BC4305FA03FC4CEA040491F803C0BCF17E
:100E4000280F05D100F1080C08FA0CF8C2F814803C
:100E500091F803C0BCF1480F07D100F1080C4FF026
:100E6000010808FA0CF8C2F81080401C0828CED3FC
:100E70005460BDE8F08101617047C16070470000B7
:100E800070B505460E4600245CE0C4EBC400304952
:100E9000096801EB8000C07D00B951E0C4EBC400DB
:100EA0002B49096801EB80008088A84247DAC4EB2F
:100EB000C4002749096801EB80000089A8423EDD93
:100EC000C4EBC4002249096801EB8000C088B0422D
:100ED00035DAC4EBC4001E49096801EB8000408983
:100EE000B0422CDDC4EBC4001949096801EB800055
:100EF0008078022807D0C4EBC4001549096801EBCB
:100F000080008078C0B9C4EBC401114A126802EBBA
:100F1000810000F021F8C4EBC4000D49096801EB21
:100F200080008078022807D1C4EBC401084A126807
:100F300002EB810188698047601CC0B270BD00BFB0
:100F4000601C84B20348008884429EDB0020F5E7E1
:100F50002C02002030020020418A038A4382018251
:100F600001228275704700002DE9F05F04460D46AE
:100F700016461F46DDE90B9ADDF828804FF0000B7E
:100F8000FFF774F9834649480088401C402802DB7B
:100F90000020BDE8F09F45480088C0EBC0004449F0
:100FA000096801EB8000847040480088C0EBC000F5
:100FB0003F49096801EB800085803C480088C0EB10
:100FC000C0003B49096801EB8000C68078193749A9
:100FD0000988C1EBC101364A126802EB8101088120
:100FE00008EB060031490988C1EBC101304A12689B
:100FF00002EB810148812D480088C0EBC0002C49DC
:10100000096801EB8000C0F80C902A480188274845
:101010000088C0EBC000264A126822F82010012187
:1010200022480088C0EBC000214A126802EB800011
:10103000817500211D480088C0EBC0001C4A126861
:1010400002EB8000C17519480088C0EBC000184948
:10105000096801EB800004EB4401174A02EB4101EF
:101060000A6802618988818210480088C0EBC0004C
:101070000F49096801EB8000C0F818A00B480088F0
:10108000401C0A4908800B480088401C0949088018
:101090005846FFF7EFF805480088401EC0EBC00037
:1010A0000349096801EB800073E70000300200206B
:1010B0002C02002032020020C2FB00082DE9FE4F66
:1010C000044600250026FFF7D1F80646E07D0128FA
:1010D00067D1608A009067897F1EBBB22289E18850
:1010E000A08800F0ADFBA08A3049088067897F1E88
:1010F000BBB22289E188A08800F0C6FA208A2B4979
:101100000880608A2A490880A078C8B3012839D0AD
:10111000022844D1012027490870E068FFF7E6FA69
:1011200085B201211022E068CDE901210090B4F8D8
:1011300004C0B4F808B00CEB0B0A0AEBDA7C4FEAF7
:101140006C0C4FEA051909EBD97B4FEA6B0808EBE9
:10115000D87BACEB6B0C1FFA8CF0B4F806C0B4F87B
:101160000AB00CEB0B0707EBD77C4FEA6C0CACF129
:10117000080C1FFA8CF15B46228906F04BFA0FE04F
:10118000FFE700BF01211022E068CDE901210090B6
:1011900063892289E188A08806F03CFA00E000BF5C
:1011A00000BF3046FFF766F8BDE8FE8F180000204C
:1011B0001A0000200000002010B54FF4E06100206C
:1011C0000AF0C8FA0149086010BD00002C02002096
:1011D0002DE9F05F81460F4614462046E21704EBE6
:1011E0005272D2102146E31704EB5373DB10A4EBC9
:1011F000C3030BB1012300E000231A44624302F051
:10120000FF0899F8006009F1010081460578812EF8
:1012100005DB402D03DBFF2D01D0FF2E0DD14FF05C
:10122000000A06E0002007F8010B0AF1010000F0B7
:10123000FF0AC245F6DBBDE8F09F7F2D03DAA5F17A
:101240004000C5B202E0A5F14100C5B2A6F181009F
:10125000C6B2BE2000FB065000FB08FB0C2C02D0DF
:10126000102C14D109E00B48D0F8090000EB0B0159
:101270004246384607F094FB09E00648D0F81100D2
:1012800000EB0B014246384607F08AFB00BF00BF67
:1012900000BFD0E7AC32002002A0FFF767F800BF24
:1012A000FEE700000D0A0D0A446561640D0A0000A6
:1012B0000146CA1701EB92729210A1EB820292B919
:1012C000642091FBF0F200FB121050B94FF4C8708B
:1012D00091FBF0F200FB121008B9012070470020CA
:1012E000FCE70120FAE70020F8E7000008B501213B
:1012F000442005F087F91C20ADF8000048208DF847
:10130000030069460648FFF72BFD0120ADF80000F9
:1013100028208DF8030069460248FFF721FD08BD2B
:10132000001801400008014070B504460026174827
:101330000588408845431548808846F60401884260
:1013400016D112488079012812D100200F498871E6
:101350002A2048812B2088810021084604F060F86B
:1013600001200A4988712B2048812A20888103E0C6
:101370000021084604F054F804F044FA002602E084
:1013800003480480761CAE42FAD370BD380E0020AC
:101390000008006C00B51648808849F24131884247
:1013A00011D01348808846F6040188420BD01048BB
:1013B000808845F21031884205D00D48808841F67A
:1013C0006311884203D1282004F016FA0EE0084881
:1013D000808845F21051884204D14FF4205004F027
:1013E0000BFA03E00021072004F016FA00BD00000C
:1013F000380E002010B50446002C66D16C49887167
:10140000F02008804FF4A07048800846808849F298
:10141000413188420BD06648808846F604018842F4
:1014200005D06348808845F2103188421AD12C20BB
:101430005F4908812A2048812B20888108468088BE
:1014400046F60401884205D05948808845F210319B
:10145000884206D14FF4A070554908804FF4F070CF
:101460004880A1E05248808845F21051884210D14E
:101470004FF430504E4908814FF4285048814FF4C2
:101480002C5088814FF4F07008804FF448704880E9
:101490008AE04748808841F6631188420DD12C20AC
:1014A000434908812B2048812A2088814FF4F0701D
:1014B00008804FF44870488076E022203C4908813B
:1014C00020204881212088816EE0012038498871E0
:1014D0004FF4A0700880F02048800846808849F2C8
:1014E0004131884205D03248808845F21031884227
:1014F00007D12C202E4908812A2048812B20888161
:101500003FE02B48808846F60401884207D12C2012
:10151000274908812B2048812A20888131E02448EE
:10152000808845F21051884210D14FF43050204944
:1015300008814FF4285048814FF42C5088814FF493
:10154000487008804FF4F07048801AE0184880888E
:1015500041F6631188420DD12C20154908812A20BB
:1015600048812B2088814FF4487008804FF4F07038
:10157000488006E022200E49088121204881202051
:1015800088810B48808846F60401884205D00848C7
:10159000808845F21031884206D14FF4F07004493A
:1015A00008804FF4A0704880002003F0C3FD10BDF8
:1015B000380E00202DE9FF4F84B081468A46002076
:1015C000039002900698A0EB09050798A0EB0A0685
:1015D000CDF80490CDF800A0002D01DD012705E035
:1015E0000DB9002702E04FF0FF376D42002E02DDFB
:1015F0004FF0010806E016B94FF0000802E04FF086
:10160000FF387642B54201DD2C4600E034464FF00B
:10161000000B21E0009A91B2019A90B200F022F8FA
:101620000398284403900298304402900398A04203
:1016300005DD0398001B039001983844019002983F
:10164000A04205DD0298001B0290009840440090E3
:101650000BF101001FFA80FB601C8345DADD08B046
:10166000BDE8F08F30B504460D462946204603F00C
:10167000D7FE04F0C7F8024800880249088030BD50
:10168000180000200008006CF0B504460D46164610
:101690001F462B46324629462046FFF78BFF3B4626
:1016A000224629462046FFF785FF3B46324639460B
:1016B0002046FFF77FFF3B46324629463046FFF77C
:1016C00079FFF0BD30B503460C4615465A48808870
:1016D00049F24131884205D05748808845F210319F
:1016E000884214D15449488904F086F8181204F04D
:1016F0007DF8D8B204F07AF84F49888904F07CF874
:10170000201204F073F8E0B204F070F88CE04A485C
:10171000808845F21051884220D14749488904F019
:101720006BF8181204F062F843494989491C88B2E1
:1017300004F062F8D8B204F059F83F49888904F0FF
:101740005BF8201204F052F83B498989491C88B2A1
:1017500004F052F8E0B204F049F865E036488088B9
:1017600041F66311884228D13348807920B9324844
:101770000088401EC01A83B22F49488904F03CF803
:10178000181204F033F8D8B204F030F8181204F04C
:101790002DF8D8B204F02AF82749888904F02CF8EB
:1017A000201204F023F8E0B204F020F8201204F034
:1017B0001DF8E0B204F01AF836E01F48808846F6BB
:1017C000040188421DD11C488079012804D11A489F
:1017D0000088401EC01A83B21749488904F00CF8EB
:1017E000181204F003F8D8B204F000F812498889FE
:1017F00004F002F8201203F0F9FFE0B203F0F6FF64
:1018000012E00D488079012804D10B480088401E61
:10181000C01A83B208494889194603F0FDFF0649FA
:101820008889214603F0F8FF0348008903490880AE
:10183000881C058030BD0000380E0020FE07006CBB
:101840002DE9FC4F05460E4617469846DDF82C90CC
:10185000002001902748808846F60401884229D15B
:1018600024488079012825D1AB4635462148008897
:10187000C01B401E86B247461E480088A0EB0B00E6
:10188000401E1FFA80F800201A4988712A204881DA
:101890002B20888143463A4631462846CDF80090B1
:1018A000FFF7CEFF0120134988712B2048812A20A1
:1018B00088811DE0781B401C80B20190344615E001
:1018C0002146284603F0ACFD03F09CFF4FF0000AD0
:1018D00006E00948A0F800900AF101001FFA80FA1A
:1018E0000198401E5045F4DC601C84B24445E7DD9D
:1018F000BDE8FC8F380E00200008006C00B59FB0DA
:101900000121080204F05EFE01214FF4B47004F0DE
:1019100079FE0120ADF8780010208DF87B000320BF
:101920008DF87A001EA9FE48FFF71AFA4CF23370C0
:10193000ADF8780018208DF87B0003208DF87A0030
:101940001EA9F848FFF70CFA4FF68070ADF8780042
:1019500018208DF87B0003208DF87A001EA9F2482C
:10196000FFF7FEF941F20100ADF8780018208DF87C
:101970007B0003208DF87A001EA9EC48FFF7F0F9F0
:1019800001200890002009900F200A9000200B9061
:101990000C900D900E900190029003200390002077
:1019A000049005900690079006200F90002010905C
:1019B0001190102012900020139015901490169002
:1019C00017904FF480501890002019904FF48040E9
:1019D0001A9000201B9008A81C9001A81D900FA829
:1019E000FFF7EAF801210620FFF7CCF8322007F0D4
:1019F000E3FB002003F068FBCD498880084680881F
:101A0000FF280ADB084680884FF6FF71884204D021
:101A1000C7488088B0F5134F7ED1D32003F0ECFE89
:101A200003F048FBC249888003F044FBC04988802A
:101A300003F040FBBE498880084680884FF6FF715E
:101A400001EA0020BA49888003F034FBB84989884C
:101A50000843B74988800846808849F24131884266
:101A60005AD0BF2003F0C8FE03F024FBB0498880A1
:101A700003F020FBAE49888003F01CFBAC49888052
:101A800003F018FBAA498880084680884FF6FF714A
:101A900001EA0020A649888003F00CFBA44989884C
:101AA0000843A34988800846808846F60401884296
:101AB0007AD0D42003F0A0FE03F0FCFA9C49888081
:101AC00003F0F8FA9A49888003F0F4FA984988807C
:101AD000084680884FF6FF7101EA0020944988800B
:101AE00003F0E8FA924989880843914988800846BA
:101AF000808845F21031884256D04FF45A4003F0A6
:101B00007BFE03F0D7FA8A4988804FF45B4003F0EC
:101B100073FE03F0CFFA00E046E08549888008466E
:101B200080884FF6FF7101EA0020814988804FF4D8
:101B30005C4003F061FE03F0BDFA7D4989880843EB
:101B40007B49888008468088B0F5004F02D145F275
:101B5000105088807648808845F21051884223D002
:101B6000A12003F049FE03F0A5FA7149888003F033
:101B7000A1FA6F498880084680884FF6FF7101EA14
:101B800000206B49888003F095FA694989880843E9
:101B9000674988800846808845F26171884203D190
:101BA00041F66310624988806148818861A0FEF730
:101BB000DDFB5F48808849F2413188427ED1CF20E9
:101BC00003F01AFE002003F011FEC12003F00EFE08
:101BD000302003F00BFEED2003F00EFE642003F036
:101BE00005FE032003F002FE122003F0FFFD81201A
:101BF00003F0FCFDE82003F0FFFD852003F0F6FD77
:101C0000102003F0F3FD7A2003F0F0FDCB2003F069
:101C1000F3FD392003F0EAFD2C2003F0E7FD00205E
:101C200003F0E4FD342003F0E1FD022003F0DEFDCB
:101C3000F72003F0E1FD202003F0D8FDEA2003F0B7
:101C4000DBFD002003F0D2FD002003F0CFFDC0201B
:101C500003F0D2FD1B2003F0C9FDC12003F0CCFD31
:101C6000012003F0C3FDC52003F0C6FD302003F0C2
:101C7000BDFD302003F0BAFDC72003F0BDFDB72045
:101C800003F0B4FD362003F0B7FD482003F0AEFDAD
:101C90003A2003F0B1FD552003F0A8FDB12003F078
:101CA000ABFD002003F0A2FD1A2003F09FFDB6203B
:101CB00003F0A2FD0A2003F099FD00E0AAE0A220B3
:101CC00003F094FDF22003F097FD002003F08EFD59
:101CD000262003F091FD012003F088FDE02003F0B1
:101CE0008BFD0F2003F082FD2A2003F07FFD2820CA
:101CF00003F07CFD082003F079FD0E2003F076FD53
:101D0000082003F073FD542003F070FDA92003F0B8
:101D10006DFD432003F06AFD0A2003F067FD11E02A
:101D2000000C014000140140001801400020014057
:101D3000380E0020204C43442049443A25780D0AAF
:101D4000000000000F2003F051FD002003F04EFDC5
:101D5000002003F04BFD002003F048FD002003F0BD
:101D600045FDE12003F048FD002003F03FFD152074
:101D700003F03CFD172003F039FD072003F036FD8A
:101D8000112003F033FD062003F030FD2B2003F07B
:101D90002DFD562003F02AFD3C2003F027FD0520F1
:101DA00003F024FD102003F021FD0F2003F01EFDA1
:101DB0003F2003F01BFD3F2003F018FD0F2003F030
:101DC00015FD2B2003F018FD002003F00FFD00206F
:101DD00003F00CFD012003F009FD3F2003F006FD98
:101DE0002A2003F009FD002003F000FD002003F08D
:101DF000FDFC002003F0FAFCEF2003F0F7FC1120BB
:101E000003F0FAFC782007F0D7F9292003F0F4FC5E
:101E100003F01DB9FE48808846F6040188427CD153
:101E2000112003F0E9FC142007F0C6F9D02003F0DC
:101E3000E3FC072003F0DAFC422003F0D7FC1D206E
:101E400003F0D4FCD12003F0D7FC002003F0CEFC3B
:101E50001A2003F0CBFC092003F0C8FCD22003F0C9
:101E6000CBFC012003F0C2FC222003F0BFFCC02009
:101E700003F0C2FC102003F0B9FC3B2003F0B6FCD9
:101E8000002003F0B3FC022003F0B0FC112003F0AB
:101E9000ADFCC52003F0B0FC032003F0A7FCC82074
:101EA00003F0AAFC002003F0A1FC252003F09EFC17
:101EB000212003F09BFC052003F098FC002003F098
:101EC00095FC0A2003F092FC652003F08FFC25208E
:101ED00003F08CFC772003F089FC502003F086FC93
:101EE0000F2003F083FC002003F080FCF82003F0B7
:101EF00083FC012003F07AFCFE2003F07DFC00202F
:101F000003F074FC022003F071FC202003F074FC49
:101F1000362003F071FC082000E02CE003F066FCA2
:101F20003A2003F069FC552003F060FC2B2003F0FD
:101F300063FC002003F05AFC002003F057FC012052
:101F400003F054FC3F2003F051FC2A2003F054FC22
:101F5000002003F04BFC002003F048FC012003F0BC
:101F600045FCDF2003F042FC782007F025F929200A
:101F700003F042FC4CE7A648808845F210318842C5
:101F800040F07C87ED2003F037FC012003F02EFCAD
:101F9000FE2003F02BFCEE2003F02EFCDE2003F0ED
:101FA00025FC212003F022FCF12003F025FC012078
:101FB00003F01CFCDF2003F01FFC102003F016FCD4
:101FC000C42003F019FC8F2003F010FCC62003F09E
:101FD00013FC002003F00AFCE22003F007FCE220DF
:101FE00003F004FCE22003F001FCBF2003F004FC3A
:101FF000AA2003F0FBFBB02003F0FEFB0D2003F052
:10200000F5FB002003F0F2FB0D2003F0EFFB0020B6
:1020100003F0ECFB112003F0E9FB002003F0E6FBEA
:10202000192003F0E3FB002003F0E0FB212003F084
:10203000DDFB002003F0DAFB2D2003F0D7FB0020AE
:1020400003F0D4FB3D2003F0D1FB002003F0CEFBD6
:102050005D2003F0CBFB002003F0C8FB5D2003F004
:10206000C5FB002003F0C2FBB12003F0C5FB8020BC
:1020700003F0BCFB002003F0B9FB8B2003F0B6FBA0
:10208000002003F0B3FB962003F0B0FB002003F028
:10209000ADFBB22003F0B0FB002003F0A7FB002053
:1020A00003F0A4FB022003F0A1FB002003F09EFB41
:1020B000032003F09BFB002003F098FBB32003F008
:1020C0009BFB002003F092FB002003F08FFB00201D
:1020D00003F08CFB002003F089FB002003F086FB5B
:1020E000002003F083FB002003F080FB002003F0BE
:1020F0007DFB002003F07AFB002003F077FB00203B
:1021000003F074FB002003F071FB002003F06EFB72
:10211000002003F06BFB002003F068FB002003F0BD
:1021200065FB002003F062FB002003F05FFB002052
:1021300003F05CFB002003F059FB002003F056FB8A
:10214000002003F053FB002003F050FB002003F0BD
:102150004DFBB42003F050FB8B2003F047FB002025
:1021600003F044FB962003F041FB002003F03EFB0C
:10217000A12003F03BFB002003F038FBB52003F067
:102180003BFB022003F032FB002003F02FFB032077
:1021900003F02CFB002003F029FB042003F026FBB6
:1021A000002003F023FBB62003F026FB002003F001
:1021B0001DFB002003F01AFBB72003F01DFB0020DD
:1021C00003F014FB002003F011FB3F2003F00EFB93
:1021D000002003F00BFB5E2003F008FB002003F05F
:1021E00005FB642003F002FB002003F0FFFA8C20C3
:1021F00003F0FCFA002003F0F9FAAC2003F0F6FA41
:10220000002003F0F3FADC2003F0F0FA002001E0F4
:10221000380E002003F0EAFA702003F0E7FA0020FD
:1022200003F0E4FA902003F0E1FA002003F0DEFA74
:10223000EB2003F0DBFA002003F0D8FADC2003F0F7
:10224000D5FA002003F0D2FAB82003F0D5FA002026
:1022500003F0CCFA002003F0C9FA002003F0C6FA1C
:10226000002003F0C3FA002003F0C0FA002003F0BE
:10227000BDFA002003F0BAFA002003F0B7FABA2042
:1022800003F0BAFA242003F0B1FA002003F0AEFA0A
:10229000002003F0ABFA002003F0A8FAC12003F0FD
:1022A000ABFA202003F0A2FA002003F09FFA54209A
:1022B00003F09CFA002003F099FAFF2003F096FA4D
:1022C000002003F093FAC22003F096FA0A2003F0EC
:1022D0008DFA002003F08AFA042003F087FA002028
:1022E00003F084FAC32003F087FA3C2003F07EFA5F
:1022F000002003F07BFA3A2003F078FA002003F084
:1023000075FA392003F072FA002003F06FFA3720D3
:1023100003F06CFA002003F069FA3C2003F066FA3F
:10232000002003F063FA362003F060FA002003F087
:102330005DFA322003F05AFA002003F057FA2F20FA
:1023400003F054FA002003F051FA2C2003F04EFA67
:10235000002003F04BFA292003F048FA002003F094
:1023600045FA262003F042FA002003F03FFA242029
:1023700003F03CFA002003F039FA242003F036FA87
:10238000002003F033FA232003F030FA002003F09A
:102390002DFA3C2003F02AFA002003F027FA362019
:1023A00003F024FA002003F021FA322003F01EFA91
:1023B000002003F01BFA2F2003F018FA002003F08E
:1023C00015FA2C2003F012FA002003F00FFA29204E
:1023D00003F00CFA002003F009FA262003F006FAB5
:1023E000002003F003FA242003F000FA002003F099
:1023F000FDF9242003F0FAF9002003F0F7F9232077
:1024000003F0F4F9002003F0F1F9C42003F0F4F92B
:10241000622003F0EBF9002003F0E8F9052003F057
:10242000E5F9002003F0E2F9842003F0DFF9002051
:1024300003F0DCF9F02003F0D9F9002003F0D6F91D
:10244000182003F0D3F9002003F0D0F9A42003F002
:10245000CDF9002003F0CAF9182003F0C7F90020D5
:1024600003F0C4F9502003F0C1F9002003F0BEF9D5
:102470000C2003F0BBF9002003F0B8F9172003F09B
:10248000B5F9002003F0B2F9952003F0AFF9002070
:1024900003F0ACF9F32003F0A9F9002003F0A6F94A
:1024A000E62003F0A3F9002003F0A0F9C52003F013
:1024B000A3F9322003F09AF9002003F097F94420A1
:1024C00003F094F9002003F091F9652003F08EF9F0
:1024D000002003F08BF9762003F088F9002003F048
:1024E00085F9882003F082F9002003F07FF9C620E7
:1024F00003F082F9202003F079F9002003F076F947
:10250000172003F073F9002003F070F9012003F0A5
:102510006DF9002003F06AF9C72003F06DF900207F
:1025200003F064F9002003F061F9002003F05EF984
:10253000002003F05BF9C82003F05EF9002003F0EF
:1025400055F9002003F052F9002003F04FF9002064
:1025500003F04CF9C92003F04FF9002003F046F9CD
:10256000002003F043F9002003F040F9002003F0BD
:102570003DF9002003F03AF9002003F037F900207C
:1025800003F034F9002003F031F9002003F02EF9B4
:10259000002003F02BF9002003F028F9002003F0BD
:1025A00025F9002003F022F9002003F01FF9002094
:1025B00003F01CF9002003F019F9E02003F01CF9E6
:1025C000162003F013F9002003F010F91C2003F08B
:1025D0000DF9002003F00AF9212003F007F900208B
:1025E00003F004F9362003F001F9002003F0FEF8AF
:1025F000462003F0FBF8002003F0F8F8522003F027
:10260000F5F8002003F0F2F8642003F0EFF8002062
:1026100003F0ECF87A2003F0E9F8002003F0E6F884
:102620008B2003F0E3F8002003F0E0F8992003F09A
:10263000DDF8002003F0DAF8A82003F0D7F8002036
:1026400003F0D4F8B92003F0D1F8002003F0CEF85D
:10265000C42003F0CBF8002003F0C8F8CA2003F030
:10266000C5F8002003F0C2F8D22003F0BFF8002024
:1026700003F0BCF8D92003F0B9F8002003F0B6F855
:10268000E02003F0B3F8002003F0B0F8F32003F0EB
:10269000ADF8002003F0AAF8E12003F0ADF8162011
:1026A00003F0A4F8002003F0A1F81C2003F09EF82A
:1026B000002003F09BF8222003F098F8002003F09C
:1026C00095F8362003F092F8002003F08FF84520AB
:1026D00003F08CF8002003F089F8522003F086F80C
:1026E000002003F083F8642003F080F8002003F05A
:1026F0007DF87A2003F07AF8002003F077F88B2039
:1027000003F074F8002003F071F8992003F06EF8DC
:10271000002003F06BF8A82003F068F8002003F015
:1027200065F8B92003F062F8002003F05FF8C420D8
:1027300003F05CF8002003F059F8CA2003F056F8C3
:10274000002003F053F8D22003F050F8002003F0EB
:102750004DF8D82003F04AF8002003F047F8E020B5
:1027600003F044F8002003F041F8F32003F03EF8B2
:10277000002003F03BF8E22003F03EF8052003F0D0
:1027800035F8002003F032F80B2003F02FF800207A
:1027900003F02CF81B2003F029F8002003F026F8A2
:1027A000342003F023F8002003F020F8442003F045
:1027B0001DF8002003F01AF84F2003F017F800204E
:1027C00003F014F8612003F011F8002003F00EF874
:1027D000792003F00BF8002003F008F8882003F0BC
:1027E00005F8002003F002F8972002F0FFFF002018
:1027F00002F0FCFFA62002F0F9FF002002F0F6FF35
:10280000B72002F0F3FF002002F0F0FFC22002F038
:10281000EDFF002002F0EAFFC72002F0E7FF0020F2
:1028200002F0E4FFD12002F0E1FF002002F0DEFF21
:10283000D62002F0DBFF002002F0D8FFDD2002F0FE
:10284000D5FF002002F0D2FFF32002F0CFFF0020DE
:1028500002F0CCFFE32002F0CFFF052002F0C6FF1C
:10286000002002F0C3FF0A2002F0C0FF002002F0A7
:10287000BDFF1C2002F0BAFF002002F0B7FF33209A
:1028800002F0B4FF002002F0B1FF442002F0AEFFDE
:10289000002002F0ABFF502002F0A8FF002002F061
:1028A000A5FF622002F0A2FF002002F09FFF782027
:1028B00002F09CFF002002F099FF882002F096FFB2
:1028C000002002F093FF972002F090FF002002F01A
:1028D0008DFFA62002F08AFF002002F087FFB720BC
:1028E00002F084FF002002F081FFC22002F07EFF90
:1028F000002002F07BFFC72002F078FF002002F0EA
:1029000075FFD12002F072FF002002F06FFFD5208A
:1029100002F06CFF002002F069FFDD2002F066FF8C
:10292000002002F063FFF32002F060FF002002F0BD
:102930005DFFE42002F060FF012002F057FF00205D
:1029400002F054FF012002F051FF002002F04EFF80
:10295000022002F04BFF002002F048FF2A2002F084
:1029600045FF002002F042FF3C2002F03FFF002024
:1029700002F03CFF4B2002F039FF002002F036FF4E
:102980005D2002F033FF002002F030FF742002F0DF
:102990002DFF002002F02AFF842002F027FF0020F4
:1029A00002F024FF932002F021FF002002F01EFF1E
:1029B000A22002F01BFF002002F018FFB32002F05B
:1029C00015FF002002F012FFBE2002F00FFF0020D2
:1029D00002F00CFFC42002F009FF002002F006FF05
:1029E000CD2002F003FF002002F000FFD32002F010
:1029F000FDFE002002F0FAFEDD2002F0F7FE0020CE
:102A000002F0F4FEF32002F0F1FE002002F0EEFEF0
:102A1000E52002F0F1FE002002F0E8FE002002F0C6
:102A2000E5FE002002F0E2FE002002F0DFFE0220C0
:102A300002F0DCFE002002F0D9FE292002F0D6FED2
:102A4000002002F0D3FE3C2002F0D0FE002002F075
:102A5000CDFE4B2002F0CAFE002002F0C7FE5D2032
:102A600002F0C4FE002002F0C1FE742002F0BEFE9F
:102A7000002002F0BBFE842002F0B8FE002002F02D
:102A8000B5FE932002F0B2FE002002F0AFFEA220BD
:102A900002F0ACFE002002F0A9FEB32002F0A6FE78
:102AA000002002F0A3FEBE2002F0A0FE002002F0F3
:102AB0009DFEC42002F09AFE002002F097FECD2079
:102AC00002F094FE002002F091FED32002F08EFE70
:102AD000002002F08BFEDC2002F088FE002002F0D5
:102AE00085FEF32002F082FE002002F07FFEE62049
:102AF00002F082FE112002F079FE002002F076FE44
:102B0000342002F073FE002002F070FE562002F026
:102B10006DFE002002F06AFE762002F067FE0020C3
:102B200002F064FE772002F061FE002002F05EFEFB
:102B3000662002F05BFE002002F058FE882002F0C2
:102B400055FE002002F052FE992002F04FFE0020B8
:102B500002F04CFEBB2002F049FE002002F046FECF
:102B6000992002F043FE002002F040FE662002F0B1
:102B70003DFE002002F03AFE552002F037FE002014
:102B800002F034FE552002F031FE002002F02EFE4D
:102B9000452002F02BFE002002F028FE432002F028
:102BA00025FE002002F022FE442002F01FFE00203D
:102BB00002F01CFEE72002F01FFE322002F016FE9B
:102BC000002002F013FE552002F010FE002002F05B
:102BD0000DFE762002F00AFE002002F007FE6620BD
:102BE00002F004FE002002F001FE672002F0FEFD6C
:102BF000002002F0FBFD672002F0F8FD002002F04B
:102C0000F5FD872002F0F2FD002002F0EFFD992093
:102C100002F0ECFD002002F0E9FDBB2002F0E6FD31
:102C2000002002F0E3FD992002F0E0FD002002F018
:102C3000DDFD772002F0DAFD002002F0D7FD442010
:102C400002F0D4FD002002F0D1FD562002F0CEFDAE
:102C5000002002F0CBFD232002F0C8FD002002F08E
:102C6000C5FD332002F0C2FD002002F0BFFD45206B
:102C700002F0BCFD002002F0B9FDE82002F0BCFD2E
:102C8000002002F0B3FD002002F0B0FD992002F018
:102C9000ADFD002002F0AAFD872002F0A7FD002074
:102CA00002F0A4FD882002F0A1FD002002F09EFDAC
:102CB000772002F09BFD002002F098FD662002F0D4
:102CC00095FD002002F092FD882002F08FFD00208B
:102CD00002F08CFDAA2002F089FD002002F086FDA2
:102CE000BB2002F083FD002002F080FD992002F05D
:102CF0007DFD002002F07AFD662002F077FD0020C5
:102D000002F074FD552002F071FD002002F06EFD0E
:102D1000552002F06BFD002002F068FD442002F017
:102D200065FD002002F062FD442002F05FFD0020FE
:102D300002F05CFD552002F059FD002002F056FD26
:102D4000E92002F059FDAA2002F050FD002002F017
:102D50004DFD002002F04AFD002002F047FD00205A
:102D600002F04AFDAA2002F041FDCF2002F044FD0E
:102D7000002002F03BFD002002F038FD002002F0B0
:102D800035FD002002F032FD002002F02FFD002072
:102D900002F02CFD002002F029FD002002F026FDAB
:102DA000002002F023FD002002F020FD002002F0B0
:102DB0001DFD002002F01AFD002002F017FD00208A
:102DC00002F014FD002002F011FD002002F00EFDC3
:102DD000002002F00BFDF02002F00EFD002002F0BA
:102DE00005FD502002F002FD002002F0FFFC002053
:102DF00002F0FCFC002002F0F9FCF32002F0FCFCE5
:102E0000002002F0F3FCF92002F0F6FC062002F0AC
:102E1000EDFC102002F0EAFC292002F0E7FC002083
:102E200002F0E4FC3A2002F0E7FC552002F0DEFC60
:102E3000112002F0E1FC642006F0BEF9292002F026
:102E4000DBFC352002F0D8FC002002F0CFFC512042
:102E500002F0D2FCFF2002F0C9FC532002F0CCFCAF
:102E60002C2002F0C3FC552002F0C6FC822002F0A8
:102E7000BDFC2C2002F0C0FC02F0E9B8FE488088BE
:102E800045F2105188427DD155214FF4704002F037
:102E9000C3FCAA214FF2010002F0BEFC52214FF206
:102EA000020002F0B9FC08214FF2030002F0B4FC6A
:102EB00001214FF2040002F0AFFC0D214FF430402D
:102EC00002F0AAFC0D214BF2010002F0A5FC0D213D
:102ED0004BF2020002F0A0FC34214FF4364002F025
:102EE0009BFC34214BF2016002F096FC34214BF242
:102EF000026002F091FC0D214FF4314002F08CFC95
:102F00000D214BF2011002F087FC0D214BF2021053
:102F100002F082FC34214FF4374002F07DFC342172
:102F20004BF2017002F078FC34214BF2027002F097
:102F300073FC00214FF4324002F06EFC00214BF292
:102F4000012002F069FC00214BF2022002F064FC37
:102F500024214FF4384002F05FFC24214BF601009D
:102F600002F05AFC24214BF6020002F055FC01212C
:102F70004FF43F4002F050FC0F214FF4334002F079
:102F80004BFC00E0FDE30F214BF2013002F044FC6A
:102F90000F214BF2023002F03FFC34214FF4394054
:102FA00002F03AFC34214BF6011002F035FC3421DA
:102FB0004BF6021002F030FC08214FF4354002F0CD
:102FC0002BFC08214BF2015002F026FC08214BF2A9
:102FD000025002F021FC03214FF4424002F01CFC9D
:102FE00024214FF43A4002F017FC24214BF6012033
:102FF00002F012FC24214BF6022002F00DFC00210D
:103000004FF43C4002F008FC78214BF6014002F0FE
:1030100003FC00214BF6024002F0FEFB00214FF4BE
:103020003D4002F0F9FB78214BF6015002F0F4FB31
:1030300000214BF6025002F0EFFB00214FF43E401E
:1030400002F0EAFB64214BF6016002F0E5FB00218F
:103050004FF4514002F0E0FB33214DF2011002F039
:10306000DBFB00214DF2021002F0D6FB34214DF2C1
:10307000031002F0D1FB00214DF2041002F0CCFB52
:103080003A214DF2051002F0C7FB00214DF2061067
:1030900002F0C2FB4A214DF2071002F0BDFB0021F5
:1030A0004DF2081002F0B8FB5C214DF2091002F05D
:1030B000B3FB00214DF20A1002F0AEFB81214DF26C
:1030C0000B1002F0A9FB00214DF20C1002F0A4FB42
:1030D000A6214DF20D1002F09FFB00214DF20E10C3
:1030E00002F09AFBE5214DF20F1002F095FB012151
:1030F0004DF2101002F090FB13214DF2111002F06E
:103100008BFB01214DF2121002F086FB54214DF28F
:10311000131002F081FB01214DF2141002F07CFB30
:1031200082214DF2151002F077FB01214DF21610AD
:1031300002F072FBCA214DF2171002F06DFB022162
:103140004DF2181002F068FB00214DF2191002F048
:1031500063FB02214DF21A1002F05EFB01214DF2D9
:103160001B1002F059FB02214DF21C1002F054FB1F
:1031700034214DF21D1002F04FFB02214DF21E10C2
:1031800002F04AFB67214DF21F1002F045FB0221BD
:103190004DF2201002F040FB84214DF2211002F08C
:1031A0003BFB02214DF2221002F036FBA4214DF22E
:1031B000231002F031FB02214DF2241002F02CFB0F
:1031C000B7214DF2251002F027FB02214DF2261007
:1031D00002F022FBCF214DF2271002F01DFB02214D
:1031E0004DF2281002F018FBDE214DF2291002F0FA
:1031F00013FB02214DF22A1002F00EFBF2214DF2D8
:103200002B1002F009FB02214DF22C1002F004FBFE
:10321000FE214DF22D1002F0FFFA03214DF22E1087
:1032200002F0FAFA10214DF22F1002F0F5FA032104
:103230004DF2301002F0F0FA33214DF2311002F06D
:10324000EBFA03214DF2321002F0E6FA6D214DF255
:10325000331002F0E1FA00214FF4524002F0DCFAA0
:1032600033214DF2012002F0D7FA00214DF2022065
:1032700002F0D2FA342101E0380E00204DF2032092
:1032800002F0CAFA00214DF2042002F0C5FA3A21F8
:103290004DF2052002F0C0FA00214DF2062002F0A6
:1032A000BBFA4A214DF2072002F0B6FA00214DF296
:1032B000082002F0B1FA5C214DF2092002F0ACFACC
:1032C00000214DF20A2002F0A7FA81214DF20B20D5
:1032D00002F0A2FA00214DF20C2002F09DFAA62184
:1032E0004DF20D2002F098FA00214DF20E2002F06E
:1032F00093FAE5214DF20F2002F08EFA01214DF2F2
:10330000102002F089FA13214DF2112002F084FA04
:1033100001214DF2122002F07FFA54214DF21320C8
:1033200002F07AFA01214DF2142002F075FA82219E
:103330004DF2152002F070FA01214DF2162002F034
:103340006BFACA214DF2172002F066FA02214DF203
:10335000182002F061FA00214DF2192002F05CFA07
:1033600002214DF21A2002F057FA01214DF21B20E2
:1033700002F052FA02214DF21C2002F04DFA3421E3
:103380004DF21D2002F048FA02214DF21E2002F0FB
:1033900043FA67214DF21F2002F03EFA02214DF25E
:1033A000202002F039FA84214DF2212002F034FA73
:1033B00002214DF2222002F02FFAA4214DF2232007
:1033C00002F02AFA02214DF2242002F025FAB72158
:1033D0004DF2252002F020FA02214DF2262002F0C3
:1033E0001BFACF214DF2272002F016FA02214DF2EE
:1033F000282002F011FADE214DF2292002F00CFA09
:1034000002214DF22A2002F007FAF2214DF22B2080
:1034100002F002FA02214DF22C2002F0FDF9FE2109
:103420004DF22D2002F0F8F903214DF22E2002F08A
:10343000F3F910214DF22F2002F0EEF903214DF2A5
:10344000302002F0E9F933214DF2312002F0E4F9A5
:1034500003214DF2322002F0DFF96D214DF23320CD
:1034600002F0DAF900214FF4534002F0D5F933218C
:103470004DF2013002F0D0F900214DF2023002F09D
:10348000CBF934214DF2033002F0C6F900214DF2A0
:10349000043002F0C1F93A214DF2053002F0BCF9D6
:1034A00000214DF2063002F0B7F94A214DF2073003
:1034B00002F0B2F900214DF2083002F0ADF95C21C2
:1034C0004DF2093002F0A8F900214DF20A3002F065
:1034D000A3F981214DF20B3002F09EF900214DF24B
:1034E0000C3002F099F9A6214DF20D3002F094F95A
:1034F00000214DF20E3002F08FF9E5214DF20F3030
:1035000002F08AF901214DF2103002F085F9132101
:103510004DF2113002F080F901214DF2123002F02B
:103520007BF954214DF2133002F076F901214DF26E
:10353000143002F071F982214DF2153002F06CF96D
:1035400001214DF2163002F067F9CA214DF2173011
:1035500002F062F902214DF2183002F05DF900210B
:103560004DF2193002F058F902214DF21A3002F0F2
:1035700053F901214DF21B3002F04EF902214DF2B8
:103580001C3002F049F934214DF21D3002F044F9AB
:1035900002214DF21E3002F03FF967214DF21F303B
:1035A00002F03AF902214DF2203002F035F984217F
:1035B0004DF2213002F030F902214DF2223002F0BA
:1035C0002BF9A4214DF2233002F026F902214DF20D
:1035D000243002F021F9B7214DF2253002F01CF918
:1035E00002214DF2263002F017F9CF214DF227309B
:1035F00002F012F902214DF2283002F00DF9DE211D
:103600004DF2293002F008F902214DF22A3002F081
:1036100003F9F2214DF22B3002F0FEF802214DF2B7
:103620002C3002F0F9F8FE214DF22D3002F0F4F8C2
:1036300003214DF22E3002F0EFF810214DF22F3021
:1036400002F0EAF803214DF2303002F0E5F83321C0
:103650004DF2313002F0E0F803214DF2323002F049
:10366000DBF86D214DF2333002F0D6F800214FF433
:10367000544002F0D1F833214DF2014002F0CCF871
:1036800000214DF2024002F0C7F834214DF2034010
:1036900002F0C2F800214DF2044002F0BDF83A21D8
:1036A0004DF2054002F0B8F800214DF2064002F05C
:1036B000B3F84A214DF2074002F0AEF800214DF276
:1036C000084002F0A9F85C214DF2094002F0A4F88C
:1036D00000214DF20A4002F09FF881214DF20B408B
:1036E00002F09AF800214DF20C4002F095F8A62164
:1036F0004DF20D4002F090F800214DF20E4002F024
:103700008BF8E5214DF20F4002F086F801214DF2D1
:10371000104002F081F813214DF2114002F07CF8C4
:1037200001214DF2124002F077F854214DF213407E
:1037300002F072F801214DF2144002F06DF882217E
:103740004DF2154002F068F801214DF2164002F0EA
:1037500063F8CA214DF2174002F05EF802214DF2E3
:10376000184002F059F800214DF2194002F054F8C7
:1037700002214DF21A4002F04FF801214DF21B4098
:1037800000E006E302F048F802214DF21C4002F08E
:1037900043F834214DF21D4002F03EF802214DF273
:1037A0001E4002F039F867214DF21F4002F034F854
:1037B00002214DF2204002F02FF884214DF22140E9
:1037C00002F02AF802214DF2224002F025F8A4214D
:1037D0004DF2234002F020F802214DF2244002F085
:1037E0001BF8B7214DF2254002F016F802214DF2E8
:1037F000264002F011F8CF214DF2274002F00CF8DC
:1038000002214DF2284002F007F8DE214DF2294056
:1038100002F002F802214DF22A4001F0FDFFF221F0
:103820004DF22B4001F0F8FF02214DF22C4001F047
:10383000F3FFFE214DF22D4001F0EEFF03214DF28A
:103840002E4001F0E9FF10214DF22F4001F0E4FF7E
:1038500003214DF2304001F0DFFF33214DF23140C2
:1038600001F0DAFF03214DF2324001F0D5FF6D2166
:103870004DF2334001F0D0FF00214FF4554001F0EC
:10388000CBFF33214DF2015001F0C6FF00214DF274
:10389000025001F0C1FF34214DF2035001F0BCFF92
:1038A00000214DF2045001F0B7FF3A214DF20550CE
:1038B00001F0B2FF00214DF2065001F0ADFF4A21A8
:1038C0004DF2075001F0A8FF00214DF2085001F021
:1038D000A3FF5C214DF2095001F09EFF00214DF243
:1038E0000A5001F099FF81214DF20B5001F094FF35
:1038F00000214DF20C5001F08FFFA6214DF20D502A
:1039000001F08AFF00214DF20E5001F085FFE52104
:103910004DF20F5001F080FF01214DF2105001F0E7
:103920007BFF13214DF2115001F076FF01214DF282
:10393000125001F071FF54214DF2135001F06CFF51
:1039400001214DF2145001F067FF82214DF2155014
:1039500001F062FF01214DF2165001F05DFFCA2116
:103960004DF2175001F058FF02214DF2185001F0AE
:1039700053FF00214DF2195001F04EFF02214DF28C
:103980001A5001F049FF01214DF21B5001F044FF94
:1039900002214DF21C5001F03FFF34214DF21D5029
:1039A00001F03AFF02214DF21E5001F035FF672170
:1039B0004DF21F5001F030FF02214DF2205001F076
:1039C0002BFF84214DF2215001F026FF02214DF200
:1039D000225001F021FFA4214DF2235001F01CFFE1
:1039E00002214DF2245001F017FFB7214DF225506E
:1039F00001F012FF02214DF2265001F00DFFCF2100
:103A00004DF2275001F008FF02214DF2285001F03D
:103A100003FFDE214DF2295001F0FEFE02214DF29E
:103A20002A5001F0F9FEF2214DF22B5001F0F4FE84
:103A300002214DF22C5001F0EFFEFE214DF22D50EF
:103A400001F0EAFE03214DF22E5001F0E5FE1021B7
:103A50004DF22F5001F0E0FE03214DF2305001F005
:103A6000DBFE33214DF2315001F0D6FE03214DF241
:103A7000325001F0D1FE6D214DF2335001F0CCFEF9
:103A800000214FF4564001F0C7FE33214DF2016092
:103A900001F0C2FE00214DF2026001F0BDFE3421B2
:103AA0004DF2036001F0B8FE00214DF2046001F018
:103AB000B3FE3A214DF2056001F0AEFE00214DF259
:103AC000066001F0A9FE4A214DF2076001F0A4FE54
:103AD00000214DF2086001F09FFE5C214DF209606B
:103AE00001F09AFE00214DF20A6001F095FE81215D
:103AF0004DF20B6001F090FE00214DF20C6001F0E0
:103B00008BFEA6214DF20D6001F086FE00214DF2E4
:103B10000E6001F081FEE5214DF20F6001F07CFEA8
:103B200001214DF2106001F077FE13214DF211607A
:103B300001F072FE01214DF2126001F06DFE542180
:103B40004DF2136001F068FE01214DF2146001F0A6
:103B500063FE82214DF2156001F05EFE01214DF2FF
:103B6000166001F059FECA214DF2176001F054FEB3
:103B700002214DF2186001F04FFE00214DF2196054
:103B800001F04AFE02214DF21A6001F045FE0121CA
:103B90004DF21B6001F040FE02214DF21C6001F06D
:103BA0003BFE34214DF21D6001F036FE02214DF244
:103BB0001E6001F031FE67214DF21F6001F02CFE06
:103BC00002214DF2206001F027FE84214DF2216098
:103BD00001F022FE02214DF2226001F01DFEA4211F
:103BE0004DF2236001F018FE02214DF2246001F035
:103BF00013FEB7214DF2256001F00EFE02214DF2B9
:103C0000266001F009FECF214DF2276001F004FE8D
:103C100002214DF2286001F0FFFDDE214DF2296006
:103C200001F0FAFD02214DF22A6001F0F5FDF221CA
:103C30004DF22B6001F0F0FD02214DF22C6001F0FD
:103C4000EBFDFE214DF22D6001F0E6FD03214DF26A
:103C50002E6001F0E1FD10214DF22F6001F0DCFD3E
:103C600003214DF2306001F0D7FD33214DF2316078
:103C700001F0D2FD03214DF2326001F0CDFD6D2146
:103C80004DF2336001F0C8FD55214FF4704001F052
:103C9000C3FDAA214FF2010001F0BEFD52214FF2F7
:103CA000020001F0B9FD08214FF2030001F0B4FD5C
:103CB00000214FF2040001F0AFFDCC214FF4314060
:103CC00001F0AAFD00214BF2011001F0A5FD052134
:103CD0004FF4364001F0A0FD70214FF4374001F061
:103CE0009BFD70214BF2017001F096FD01214FF414
:103CF000384001F091FD03214BF6010001F08CFDED
:103D000003214BF6020001F087FD03214BF603006F
:103D100001F082FD02214FF43C4001F07DFD0021C5
:103D20004BF6014001F078FD00214BF6024001F016
:103D300073FDD0214FF4494001F06EFD02214CF695
:103D4000011001F069FD50214CF6021001F064FDF4
:103D500050214CF6031001F05FFD50214CF6041089
:103D600001F05AFD00214FF4545001F055FD55214A
:103D70004FF4685001F050FD4FF4885001F03CFDC5
:103D8000782005F04FFA4FF4245001F035FD01F092
:103D90005EB9FE48808849F2253188427ED147F6D7
:103DA000F001E52001F038FD4FF48071012001F0B1
:103DB00033FD4FF4E061022001F02EFD41F23001AD
:103DC000032001F029FD0021042001F025FD40F22F
:103DD0000221082001F020FD0021092001F01CFD36
:103DE00000210A2001F018FD00210C2001F014FD33
:103DF00000210D2001F010FD00210F2001F00CFD2D
:103E00000021102001F008FD0721112001F004FD20
:103E10000021122001F000FD0021132001F0FCFC24
:103E20000021072001F0F8FC41F29061102001F020
:103E3000F3FC40F22721112001F0EEFC9D2112201D
:103E400001F0EAFC4FF4C851132001F0E5FC2521F4
:103E5000292001F0E1FC0D212B2001F0DDFC0721E0
:103E6000302001F0D9FC40F20331312001F0D4FCC4
:103E70000321322001F0D0FC40F20621352001F070
:103E8000CBFC0821362001F0C7FC40F20641372068
:103E900001F0C2FC4FF44171382000E057E001F01E
:103EA000BBFC0721392001F0B7FC40F202613C2045
:103EB00001F0B2FC08213D2001F0AEFC00215020B1
:103EC00001F0AAFCEF21512001F0A6FC00215220B4
:103ED00001F0A2FC40F23F11532001F09DFC4FF491
:103EE0002741602001F098FC0121612001F094FC41
:103EF00000216A2001F090FC0021802001F08CFC60
:103F00000021812001F088FC0021822001F084FC46
:103F10000021832001F080FC0021842001F07CFC42
:103F20000021852001F078FC1021902001F074FC24
:103F30004FF4C061922001F06FFC40F23311072072
:103F400001F06AFC2221002001F066FC1FE78F4887
:103F5000808849F2283188427ED141F28F01EC20DD
:103F600001F05AFC41F23421EF2001F055FC4FF4EE
:103F70008071012001F050FC4FF4E061022001F05B
:103F80004BFC41F23001032001F046FC00210420EB
:103F900001F042FC40F20221082001F03DFC00212A
:103FA000092001F039FC00210A2001F035FC012133
:103FB0000C2001F031FC00210D2001F02DFC00212E
:103FC0000F2001F029FC0021102001F025FC072121
:103FD000112001F021FC0021122001F01DFC002124
:103FE000132001F019FC0121072001F015FC3220FB
:103FF00005F0E2F841F29041102001F00DFC40F292
:104000002721112001F008FC322005F0D5F88A2183
:10401000122001F001FC322005F0CEF84FF4D0510F
:10402000132001F0F9FB0621292001F0F5FB0D21F9
:104030002B2001F0F1FB322005F0BEF800212020FA
:1040400001F0EAFB0021212001F0E6FB322005F01F
:10405000B3F80021302000E074E001F0DDFB40F215
:104060000461312001F0D8FB40F20531322001F02B
:10407000D3FB0021352001F0CFFB40F6094136206B
:1040800001F0CAFB4FF40171372001F0C5FB40F28B
:104090000131382001F0C0FB40F20771392001F0F6
:1040A000BBFB00213C2001F0B7FB40F60A213D207C
:1040B00001F0B2FB322005F07FF80021502001F022
:1040C000ABFBEF21512001F0A7FB0021522001F0B2
:1040D000A3FB40F23F11532001F09EFB4FF4274118
:1040E000602001F099FB0121612001F095FB002186
:1040F0006A2001F091FB0021802001F08DFB00215E
:10410000812001F089FB0021822001F085FB002144
:10411000832001F081FB0021842001F07DFB002140
:10412000852001F079FB1021902001F075FB4FF400
:10413000C061922001F070FB40F23311072001F0C2
:104140006BFB24E61148808849F2203188427DD1FA
:104150000021084601F060FB4FF48071012001F05E
:104160005BFB4FF4E061022001F056FB41F23001AD
:10417000032001F051FB0021042001F04DFB40F22F
:104180000221082001F048FB002101E0380E002048
:10419000092001F041FB00210A2001F03DFB012133
:1041A0000C2001F039FB00210D2001F035FB00212E
:1041B0000F2001F031FB322004F0FEFF40F201112C
:1041C000072001F029FB322004F0F6FF4FF486515E
:1041D000102001F021FB0721112001F01DFB4FF4FD
:1041E0008871122001F018FB4FF43061132001F0A8
:1041F00013FB0021292001F00FFB44F210012B20BA
:1042000001F00AFB0021502001F006FBEF215120B4
:1042100001F002FB0021522001F0FEFA40F23F11B2
:10422000532001F0F9FA4FF41C51602001F0F4FA28
:104230000121612001F0F0FA00216A2001F0ECFA7E
:104240000021802001F0E8FA002100E031E0812027
:1042500001F0E2FA0021822001F0DEFA0021832041
:1042600001F0DAFA0021842001F0D6FA002185203D
:1042700001F0D2FA1021902001F0CEFA0021922014
:1042800001F0CAFA0121932001F0C6FA4FF48871B7
:10429000952001F0C1FA0021972001F0BDFA00211C
:1042A000982001F0B9FA40F27311072001F0B4FA36
:1042B0006DE5FE48808849F2313188427DD141F276
:1042C0001401E72001F0A8FA4FF48071012001F0F9
:1042D000A3FA4FF40071022001F09EFA41F2380176
:1042E000032001F099FA40F20221082001F094FA2B
:1042F0000021092001F090FA00210A2001F08CFA37
:1043000000210C2001F088FA00210D2001F084FA30
:1043100000210F2001F080FA0021102001F07CFA2A
:104320000721112001F078FA0021122001F074FA1F
:104330000021132001F070FAC82004F03DFF41F283
:104340009061102001F068FA40F22721112001F05D
:1043500063FA322004F030FF0C21122001F05CFAE5
:10436000322004F029FF4FF40061132001F054FAC9
:104370001121292001F050FA0B212B2001F04CFAD9
:10438000322004F019FF0021202001F045FA40F20C
:104390003F11212001F040FA0021302001F03CFAC9
:1043A0004FF48371312001F037FA0021322001F0FF
:1043B00033FA4FF40171352000E064E001F02CFA8B
:1043C00041F20A61362001F027FA40F207713720E6
:1043D00001F022FA4FF48371382001F01DFA40F207
:1043E0000771392001F018FA40F202413C2001F037
:1043F00013FA40F60F413D2001F00EFA0021502043
:1044000001F00AFAEF21512001F006FA00215220B2
:1044100001F002FA40F23F11532001F0FDF94FF490
:104420001C51602001F0F8F90121612001F0F4F93C
:1044300000216A2001F0F0F90021802001F0ECF960
:104440000021812001F0E8F90021822001F0E4F947
:104450000021832001F0E0F90021842001F0DCF943
:104460000021852001F0D8F91021902001F0D4F925
:104470004FF4C061922001F0CFF940F233110720D0
:1044800001F0CAF983E48948808845F208418842EE
:104490007ED14FF48071012001F0BEF94FF4E0614C
:1044A000022001F0B9F941F23001032001F0B4F922
:1044B0000021042001F0B0F940F20721082001F0AA
:1044C000ABF90021092001F0A7F900210A2001F031
:1044D000A3F900210C2001F09FF900210D2001F02B
:1044E0009BF900210F2001F097F9142004F064FEDD
:1044F00041F2B061102001F08FF90121112001F08B
:104500008BF90121172001F087F94FF49C711220DB
:1045100001F082F94FF40061132001F07DF90921C7
:10452000292001F079F909212A2001F075F90021EB
:10453000A42001F071F90021502001F06DF9EF2164
:10454000512001F069F90021522001F065F940F293
:104550003F11532001F060F94FF41C51602001F02D
:104560005BF90121612001F057F900216A2001F077
:1045700053F90021802001F04FF90021812001F042
:104580004BF90021822001F047F90021832000E04F
:1045900023E001F041F90021842001F03DF90021E0
:1045A000852001F039F91321902001F035F900211F
:1045B000922001F031F90321932001F02DF94FF4FD
:1045C0008871952001F028F940F27311072001F05D
:1045D00023F9322004F0F0FDB8E43448808841F239
:1045E000055188427ED10021072001F015F93220C3
:1045F00004F0E2FD4FF48E71122001F00DF901215B
:10460000A42001F009F90F21082001F005F9082183
:104610000A2001F001F908210D2001F0FDF840F217
:104620000771302001F0F8F80721312001F0F4F88B
:1046300040F20361322001F0EFF84FF4E0613320E3
:1046400001F0EAF840F20221342001F0E5F80221FD
:10465000352001F0E1F841F60F71362001F0DCF869
:1046600040F20771372001F0D7F80021382001F01F
:10467000D3F80021392001F0CFF840F207713A2039
:1046800001F0CAF800213B2001F0C6F807213C20C8
:1046900001F0C2F800213D2001F0BEF8322004F004
:1046A0008BFD0121072001F0B7F801E0380E002052
:1046B0000121172001F0B0F8322004F07DFD4FF405
:1046C000BD51102001F0A8F840F21721112001F08F
:1046D000A3F84FF48F71122001F09EF84FF470612F
:1046E000132000E097E001F097F800212A2001F064
:1046F00093F80A21292001F08FF84FF49F711220BE
:1047000001F08AF80021502001F086F8EF215120B5
:1047100001F082F80021522001F07EF840F23F11B2
:10472000532001F079F84FF41C51602001F074F827
:104730000121612001F070F800216A2001F06CF87D
:104740000021802001F068F80021812001F064F848
:104750000021822001F060F80021832001F05CF844
:104760000021842001F058F80021852001F054F840
:104770001321902001F050F84FF44071922001F085
:104780004BF80521932001F047F80021952001F016
:1047900043F80021972001F03FF80021982001F014
:1047A0003BF84FF48071012001F036F84FF4E061DE
:1047B000022001F031F841F23801032001F02CF819
:1047C0000021042001F028F800210C2001F024F839
:1047D00000210F2001F020F80021202001F01CF81A
:1047E0000021212001F018F82121072001F014F800
:1047F000142004F0E1FC6121072001F00DF81420E1
:1048000004F0DAFC40F27311072001F005F81420DF
:1048100004F0D2FC95E4FE4880884BF205518842B2
:104820007ED10021084600F0F7FF0021084600F085
:10483000F3FF0021084600F0EFFF0021084600F0DA
:10484000EBFF0121A42000F0E7FF142004F0B4FCEA
:104850004FF41C51602000F0DFFF40F202210820DD
:1048600000F0DAFF4FF40571302000F0D5FF43F27D
:104870001571312000F0D0FF40F20461322000F0C9
:10488000CBFF40F61661332000F0C6FF42F2112143
:10489000342000F0C1FF4FF4A851352000F0BCFFD8
:1048A00048F20751362000F0B7FF41F207413720A8
:1048B00000F0B2FF41F20341382000F0ADFF2021AB
:1048C000392000F0A9FF1A21902000F0A5FF002157
:1048D000102000F0A1FF0721112000F09DFF002112
:1048E000122000F099FF0021132000F095FF142002
:1048F00004F062FC4FF4E661102000F08DFF40F2FE
:104900003711112000F088FF142004F055FC4FF4FB
:10491000DC71122000F080FF142004F04DFC00E058
:1049200083E04FF47061132000F076FF80212A208D
:1049300000F072FF4821292000F06EFF142004F0DF
:104940003BFC4FF48071012000F066FF4FF4E06102
:10495000022000F061FF41F23801032000F05CFF0B
:1049600040F20221082000F057FF00210A2000F049
:1049700053FF00210C2000F04FFF00210D2000F01C
:104980004BFF30210E2000F047FF0021502000F0A7
:1049900043FFEF21512000F03FFF0021522000F0A3
:1049A0003BFF40F23F11532000F036FF4FF41C5103
:1049B000602000F031FF0121612000F02DFF002177
:1049C0006A2000F029FF1121902000F025FF4FF40C
:1049D000C061922000F020FF40F20241932000F0DD
:1049E0001BFF0221942000F017FF142004F0E4FBC9
:1049F0000121072000F010FF142004F0DDFB6121ED
:104A0000072000F009FF40F27311072000F004FFB7
:104A10000021202000F000FF0021212000F0FCFEFA
:104A20002221002000F0F8FE11E3794880884CF242
:104A3000055188427ED10021084600F0EDFE00219C
:104A4000084600F0E9FE142004F0B6FB00210846F9
:104A500000F0E2FE0021084600F0DEFE00210846DC
:104A600000F0DAFE0021084600F0D6FE0121A42065
:104A700000F0D2FE142004F09FFB4FF41C51602084
:104A800000F0CAFE40F60601082000F0C5FE40F224
:104A90000371302000F0C0FE0121312000F0BCFE87
:104AA0000421322000F0B8FE4FF48171332000F071
:104AB000B3FE4FF44071342000F0AEFE40F203111B
:104AC000352000F0A9FE1F21362000F0A5FE40F29F
:104AD0000371372000F0A0FE0121382000F09CFE79
:104AE0000421392000F098FE1521902000F094FE5A
:104AF0004FF48261102000F08FFE40F24721112018
:104B000000F08AFE4FF4DE71122000F085FE4FF4B3
:104B10006061132000F080FE782004F04DFB4FF41C
:104B20008071012000F078FE4FF40071022000F047
:104B300073FE00E050E041F23001032000F06CFE13
:104B400008210A2000F068FE00210C2000F064FE1D
:104B500020210E2000F060FE00210F2000F05CFEFE
:104B60000021202000F058FE0021212000F054FEFA
:104B70003D212A2000F050FE142004F01DFB2D21C1
:104B8000292000F049FE0021502000F045FE4DF2A2
:104B9000EF01512000F040FE0021522000F03CFEC9
:104BA00040F23F11532000F037FE0021612000F059
:104BB00033FE00216A2000F02FFE4FF44071922056
:104BC00000F02AFE0521932000F026FE4FF48071AC
:104BD000072000F021FE3AE20D48808844F231516E
:104BE00088427CD10121002000F016FE0A2004F04A
:104BF000E3FA41F22861102000F00EFE0E2112208F
:104C000000F00AFE40F63921132000F005FE01E015
:104C1000380E00200A2004F0CFFA4021112000F0C5
:104C2000FBFD5021152000F0F7FD0A2004F0C4FA26
:104C30001E21122000F0F0FD0A2004F0BDFA4FF40E
:104C4000B151102000F0E8FD42F63921132000F0A8
:104C5000E3FD0A2004F0B0FA4FF48071012000F067
:104C6000DBFD4FF44071022000F0D6FD41F2380127
:104C7000032000F0D1FD40F20221082000F0CCFD1D
:104C800008210A2000F0C8FD0021302000F0C4FDFA
:104C900040F20241312000F0BFFD4FF48371322019
:104CA00000F0BAFD40F20351332000F0B5FD4FF49F
:104CB0008271342000F0B0FD40F20131352000F067
:104CC000ABFD40F20771362000F0A6FD40F2053141
:104CD000372000F0A1FD4FF40271382000E040E0E1
:104CE00000F09AFD40F60B71392000F095FD02218D
:104CF000412000F091FD4FF41C51602000F08CFD2C
:104D00000121612000F088FD4FF40471902000F033
:104D100083FD4FF48571922000F07EFD04219320E5
:104D200000F07AFD4FF48071A02000F075FD0121A4
:104D3000072000F071FD2121072000F06DFD2321E7
:104D4000072000F069FD3321072000F065FD40F2E7
:104D50003311072000F060FD0021A02000F05CFD71
:104D600075E1C348808844F2355188427ED13021B4
:104D7000152000F051FD10219A2000F04DFD20215A
:104D8000112000F049FD43F22841102000F044FDBD
:104D90000221122000F040FD41F23801132000F002
:104DA0003BFD282004F008FA1221084600F034FDEB
:104DB000282004F001FA43F22041102000F02CFDDD
:104DC00043F23801132000F027FD462004F0F4F9E7
:104DD0000021302000F020FD40F20241312000F09F
:104DE0001BFD40F20731322000F016FD4FF44171F7
:104DF000332000F011FD0421342000F00DFD40F2BD
:104E00000141352000F008FD40F20771362000F026
:104E100003FD40F20531372000F0FEFC4FF4C26183
:104E2000382000F0F9FC4FF4C261392000F0F4FCA6
:104E30004FF48071012000F0EFFC4FF4407102202C
:104E400000F0EAFC41F23001032000F0E5FC40F6FE
:104E50000801082000F0E0FC08210A2000F0DCFC3A
:104E60004FF41C51602000F0D7FC00E031E001213C
:104E7000612000F0D1FC4FF49F71902000F0CCFC39
:104E80004FF48071922000F0C7FC4FF480719320A2
:104E900000F0C2FC4FF44051A02000F0BDFC1021F6
:104EA000A32000F0B9FC0121072000F0B5FC21216E
:104EB000072000F0B1FC2321072000F0ADFC3321D6
:104EC000072000F0A9FC40F23311072000F0A4FCF9
:104ED000BDE06748808841F663118842F8D1E2203E
:104EE00000F08AFC1D2000F081FC022000F07EFC16
:104EF000042000F07BFC642004F094F9E02000F032
:104F00007BFC012000F072FC0A2004F055F9E0203F
:104F100000F072FC032000F069FC0C2004F04CF956
:104F2000012000F069FC0A2004F046F9E62000F0B8
:104F300063FC2F2000F05AFCFF2000F057FCFF20FC
:104F400000F054FCB02000F057FC202000F04EFC94
:104F5000002000F04BFC032000F048FC40F21F3022
:104F600000F044FC012000F041FC40F2DF1000F0B2
:104F70003DFC002000F03AFCB42000F03DFC042091
:104F800000F034FC40F21F4000F030FC002000F044
:104F90002DFC2E2000F02AFC002000F027FC002031
:104FA00000F024FC002000F021FC002000F01EFC9A
:104FB000B62000F021FC022000F018FC4FF4037032
:104FC00000F014FC002000F011FC172000F00EFC93
:104FD000152000F00BFC002000F008FC002000F081
:104FE00005FCF02000F008FC032000F0FFFB292066
:104FF00000F002FCD02000F0FFFB002000F0F6FBE8
:10500000BE2000F0F9FB052000F0F0FBFE2000F0D0
:10501000EDFB012000F0EAFB002000F0E7FB0020A0
:1050200000F0E4FB002000F0E1FBB82000F0E4FB1E
:10503000032000F0DBFB012000F0D8FBBA2000F0D9
:10504000DBFB012000F0D2FB642000F049F80020D7
:10505000FCF7D0F900200749086000F00DF8642043
:1050600000F012F84FF6FF70FCF75EF91FB000BDBC
:10507000380E00208081214210B5002140F283309B
:1050800002F094FB10BD000010B504462146024812
:1050900002F093FC10BD00000004004010B5024671
:1050A000012000E050430B1EA1F10104E1B2F9D14F
:1050B00010BD000008B5034800880090BDF800004E
:1050C00008BD00000008006C10B50446204600F042
:1050D00093FB052004F0A6F8FFF7ECFF10BD0000DD
:1050E0002DE9F0470446BE2000F086FB052000F0C5
:1050F0007DFB204608F047F907464FF066320C4B1F
:1051000008F090F9054608F011F91FFA80F94846B1
:1051100000F06CFB012000F069FBFF2000F066FB53
:10512000002000F063FB002000F060FBBDE8F0878A
:105130006666044070B5044600230026B7488079AF
:1051400001280BD1B548808846F60401884205D075
:10515000B248808841F66311884208D1AF4880790F
:10516000F0B9AE48808841F66311884218D1082C06
:1051700015D2DFE804F00406080A0C0E101206240B
:105180000DE007240BE0042409E0052407E00124D6
:1051900005E0002403E0032401E0022400BF00BF77
:1051A0009E48808849F24131884217D09B488088C8
:1051B00046F60401884211D09848808845F21031A3
:1051C00088420BD09548808845F21051884205D01E
:1051D0009248808841F6631188427DD1082C1CD208
:1051E000DFE804F00406090C0F12151800BF14E0E4
:1051F00043F0800311E043F040030EE043F0C003AE
:105200000BE043F0200308E043F0600305E043F0C7
:10521000A00302E043F0E00300BF00BF7F488088A6
:1052200045F21051884202D14FF4585600E036261C
:105230007A48808845F2103188420DD077488088BE
:1052400045F21051884207D07448808841F66311B6
:10525000884201D043F008037048808846F6040174
:10526000884201D143F002031946304600F0D4FAD7
:105270006A48808841F6631188421DD003F02000FF
:1052800068B16648008865494988884214DA6348ED
:105290000588408861490880084645800CE05F48E1
:1052A00000885E494988884206DD5C480588408858
:1052B0005A490880084645805848808845F2105170
:1052C000884254D15549488900F096FA002000F0F0
:1052D0008DFA5249498900E078E0491C88B200F013
:1052E0008BFA002000F082FA4C494989891C88B267
:1052F00000F082FA49490988491EC1F30F2000F0E5
:1053000075FA46494989C91C88B200F075FA4349C3
:105310000978491EC8B200F069FA4049888900F04E
:105320006BFA002000F062FA3C498989491C88B276
:1053300000F062FA002000F059FA38498989891C86
:1053400088B200F059FA35494988491EC1F30F2047
:1053500000F04CFA31498989C91C88B200F04CFA36
:105360002E498978491EC8B200F040FA55E02B4911
:10537000488900F041FA002000F038FA002000F0DF
:1053800035FA26490988491EC1F30F2000F02EFA8C
:1053900022490978491EC8B200F028FA1F498889B5
:1053A00000F02AFA002000F021FA002000F01EFA96
:1053B0001A494988491EC1F30F2000F017FA17490E
:1053C0008978491EC8B200F011FA26E0082C1CD2D8
:1053D000DFE804F004070A0D0F12151843F030033C
:1053E00013E043F0100310E043F020030DE000BF92
:1053F0000BE043F0380308E043F0280305E043F0F6
:10540000180302E043F0080300BF00BF032643F483
:1054100080531946304600F0FFF970BD380E002069
:1054200010B503460C466748808849F241318842EE
:1054300005D06448808845F21031884214D1614912
:10544000488900F0D9F9181200F0D0F9D8B200F06C
:10545000CDF95C49888900F0CFF9201200F0C6F937
:10546000E0B200F0C3F9ABE05648808846F604018C
:1054700088421DD153488079012804D151480088C1
:10548000401EC01A83B24F49488900F0B5F918127E
:1054900000F0ACF9D8B200F0A9F94A49888900F0C7
:1054A000ABF9201200F0A2F9E0B200F09FF987E01A
:1054B0004448808841F66311884247D14148807949
:1054C000A8B940480088401EC01A83B23D494889A7
:1054D00000F092F9002000F089F9002000F086F930
:1054E000181200F083F9D8B200F080F916E03549BF
:1054F000488900F081F9181200F078F9D8B200F06C
:1055000075F930490988491EC1F30F2000F06EF982
:105510002C490978491EC8B200F068F929498889E0
:1055200000F06AF9201200F061F9E0B200F05EF9D3
:1055300024494988491EC1F30F2000F057F9214939
:105540008978491EC8B200F051F939E01D488088B9
:1055500045F21051884220D11A49488900F04CF98F
:10556000181200F043F917494989491C88B200F024
:1055700043F9D8B200F03AF91249888900F03CF9B1
:10558000201200F033F90F498989491C88B200F0D4
:1055900033F9E0B200F02AF912E00A4880790128D4
:1055A00004D108480088401EC01A83B205494889C2
:1055B000194600F031F903498889214600F02CF999
:1055C00010BD0000380E00202DE9F84F80460E4631
:1055D00017461C46B3462046E31704EB5373DB1013
:1055E00021464FEAE47C04EB5C7C4FEAEC0CA4EB34
:1055F000CC0CBCF1000F02D04FF0010C01E04FF0D9
:10560000000C6344224604EBD27C4FEA6C0C03FB93
:105610000CF3DBB20093A7F12000C7B2002556E0DF
:105620000C2C07D107EB47002B4901EB800010F849
:10563000059013E0102C05D1284800EB071010F856
:1056400005900BE0182C07D107EBC700244901EBAC
:10565000800010F8059001E0BDE8F88F4FF0000AD7
:105660002FE009F0800030B11E48028831464046E4
:10567000FCF728F807E00A9828B91B480288314649
:105680004046FCF71FF84FEA49604FEA1069701C6A
:1056900086B216484088B04200DCDDE7A6EB0B007E
:1056A000A0420AD15E4608F101001FFA80F80F48B7
:1056B0000088404500DCCFE706E00AF1010000F079
:1056C000FF0ABAF1080FCCDB00BF681CC5B2009816
:1056D0008542A5DB00BFBFE7CBDE00083FE3000843
:1056E0002FE90008180000201A000020380E0020C2
:1056F0002DE9FF4F81B0074691461E460E9D4FF0A3
:10570000000A002439E0301B401EC1B20A20FFF716
:10571000C5FCB9FBF0F00A21B0FBF1F201FB120865
:10572000BAF1000F16D1701EA04213DDB8F1000FC0
:105730000ED10020AB4605EBDB71491001FB047173
:10574000009088B22B4620220299FFF73DFF12E01D
:105750004FF0010A0020AB4605EBDB71491001FB5D
:105760000471009088B208F13001CAB22B46029948
:10577000FFF72AFF00BF601CC4B2B442C3DB05B010
:10578000BDE8F08F2DE9F84704460D46904699464E
:10579000DDE9096704F0FF0A08EB04001FFA80F84E
:1057A00009EB05001FFA80F916E0444502DB544678
:1057B000A81985B24D4500DB14E0002000903A782E
:1057C000334629462046FFF7FFFE304606EBD071F0
:1057D00004EB61018CB27F1C38787E2802DC3878BB
:1057E0002028E2DA00BFBDE8F88700000149088000
:1057F000704700000008006C0149088070470000F5
:10580000FE07006C024800890249088070470000CA
:10581000380E0020FE07006C024A1080921C118096
:1058200070470000FE07006C08B50121482000F019
:10583000E9FE4FF40870ADF8000010208DF8030069
:1058400003208DF8020069460948FBF789FA2021F8
:105850000748FBF710FB2020ADF80000694605481B
:10586000FBF77EFA20210348FBF705FB08BD00008B
:10587000000C01400018014000BFFEE77047000027
:1058800070B5002100230F22C47804B3154C24689E
:1058900004F4E064C4F5E064210AC1F10403CA40E1
:1058A000447804FA03F184781440214309010E4C32
:1058B0000678A155047804F01F050124AC40057852
:1058C0006D11AD0005F1E025C5F8004109E004784F
:1058D00004F01F050124AC40044D0678761145F80C
:1058E000264070BD0CED00E000E400E080E100E047
:1058F00002490143024A1160704700000000FA05A6
:105900000CED00E010B500F013F800F0BFFB00F064
:10591000E7FB00F007FC00F08FFB00F061FB00F0FC
:105920009BFC00F03FFC00F065FC00F002F810BDAD
:105930007047704706480078012808D1054800786C
:10594000FF2804D203480078401C024908707047C1
:105950009A0000208D00002010B500241A4800781D
:10596000012830D1FAF782FC04461848007820B1AB
:1059700016480078401E1549087014480078F8B998
:1059800013480078E0B900F0C9FC124812490978C0
:1059900050F82100114908600F4800781049097833
:1059A00088420DD00D480068806B401C0B49096887
:1059B00088630C480068401C0A490860FAF775FCC7
:1059C0002046FAF757FC10BD9A0000208D000020F9
:1059D0008E000020442D002090000020A800002010
:1059E0008F0000207400002010B500240B480078C0
:1059F000012811D1FAF73AFC04460948007840B969
:105A000008480078FF2804D206480078401C054961
:105A100008702046FAF72EFC10BD00009A00002006
:105A20008D0000208E00002010B50024134800785F
:105A3000012821D1FAF71AFC044611480078C0B1B8
:105A40000F480078401E0E4908700846007860B97B
:105A50000C48007828B92046FAF70CFC00F024FC2A
:105A60000AE02046FAF706FC06E02046FAF702FCB8
:105A700002E02046FAF7FEFB10BD00009A0000206D
:105A80008E0000208D00002010B50B48007890B9E2
:105A900000F044FC094800780949087009480749A2
:105AA000097850F82100084908600846006807494D
:105AB0000860FAF7E2FB10BD9A0000209000002079
:105AC0008F000020442D0020A8000020A00000200E
:105AD000704700002DE9FE4F06460F4690461C46D3
